S00B00006D61696E2E73313944
S113200020FEF620A42606C601F720A439C1022624
S113201005C603F720A439CE1023C640E700F620F6
S1132020A22613CE100EEC00C30BB8CE1018ED0090
S1132030C601F720A239C1012612CE100EEC00C34E
S11320401B58CE1018ED00C602F720A239FC20A0C0
S11320502607CC0001FD20A0391A83000126067F43
S113206020A17F20A03936BDFFCD36333239363733
S113207032BDFFB83239BDFFC4393C8F3C0736BD91
S1132080FFCA3206388F38393C8F3C07BDFFBE0685
S1132090388F38393C8F3C07AD0006388F3839A764
S10920A00000000000FF37
S9032000DC
