S00B00006D61696E2E73313944
S11320008E1FFFCC2246BD2220BD221CBD220CF710
S1132010104CC1612613BD213DBD221CFE1044E6B7
S113202000BD2214BD221C20DAC16426048D532075
S1132030D2C16726048D0520CA3F20C7BD220CF7F4
S11320401046BD220CF7104BBD220CF71040BD22E8
S11320500CF71047BD220CF7104A3734F6104737F7
S113206034F610403734F6104BBD21A5FD1048BDA1
S1132070221CFC1048BD223ABD221C1838183818FE
S113208038393CDE003CBD220CF71046BD220CF76B
S1132090104BBD220CF71040BD220CF71047BD2297
S11320A00CF7104ABD220CF71046BD220CF7104362
S11320B0BD220CF71041F6104A3734F61047373476
S11320C0F610403734F6104BBD21A5FD1048F6102C
S11320D0413734F610433734C6303734BD21A5F7C1
S11320E0104218FE1048183A18DF00BD221CCC001C
S11320F00730ED0E30C60C3A35DC001AB310482711
S11321003430EE022612FC1048BD222EC60ABD222F
S113211014CE00071830200CFC1048BD222E1830B5
S1132120CDEE0209CDEF02FC1048C30001FD1048BA
S11321301A930026CCBD221C38DF003839BD220C8E
S1132140F71046BD220CF7104BBD220CF71040BD12
S1132150220CF71047BD220CF7104ABD220CF710D1
S113216046BD220CF71043BD220CF71041F6104A6D
S11321703734F610473734F610403734F6104B8DA9
S113218024FD1048F610413734F610433734C63076
S113219037348D11F71042FE1048FF1044E7003029
S11321A0C60C3A353934DE003C30E7028D2C050587
S11321B00505DD0030E6068D21D30005050505DDA6
S11321C00030E6088D14D30005050505DD0030E672
S11321D00A8D07D30038DF003139DE003CD701CB4C
S11321E0D0C1092205CCFFD02018D601CBBFC1191C
S11321F02205CCFFC9200BD601CB9FC1192209CCE3
S1132200FFA9DB018900200038DF003936BDFFCD8E
S113221036333239363732BDFFB83239BDFFC439AF
S11322203C8F3C0736BDFFCA3206388F38393C8FA5
S11322303C07BDFFBE06388F38393C8F3C07AD00E4
S109224006388F3839A7AF
S1132246747970653A206120626262622063632059
S1132256746F2070757420636320696E20626262F5
S1132266620A2020202020206420626262622063A9
S11322766320746F2064756D70206D656D206672C1
S11322866F6D206262626220746F20626262622BEA
S113229663630A2020202020206720626262622075
S11122A6746F20676F20746F20626220040042
S9032000DC
